:10000000F0C000000C949F140C94C61412C10000A0
:1000100010C100000EC100000CC100000C94361885
:1000200008C1000006C1000004C1000002C10000B8
:1000300000C100000C949C18FCC00000FAC0000035
:100040000C94ED14F6C000000C944F170C9481171B
:10005000F0C00000EEC00000ECC00000EAC00000EC
:100060000C942127E6C00000084AD73B3BCE016E26
:1000700084BCBFFDC12F3D6C74319ABD56833DDAFF
:100080003D00C77F11BED9E4BB4C3E916BAAAABE0E
:10009000000000803F000000000800020100000393
:1000A0000407000000000000000001020408102006
:1000B00040800102040810200102040810200404FA
:1000C0000404040404040202020202020303030300
:1000D000030300000000250028002B0002001D3A49
:1000E0002774694E53E8F5D2CF9C81A6BBCDD0F7DB
:1000F000EAB9A4839E25381F02514C6B76879ABDBE
:10010000A0F3EEC9D46F7255481B06213C4A5770C4
:100110006D3E230419A2BF9885D6CBECF1130E29AE
:1001200034677A5D40FBE6C1DC8F92B5A8DEC3E49C
:10013000F9AAB7908D362B0C11425F78659489AE81
:10014000B3E0FDDAC77C61465B0815322F59446382
:100150007E2D30170AB1AC8B96C5D8FFE2263B1C2A
:1001600001524F6875CED3F4E9BAA7809DEBF6D162
:10017000CC9F82A5B8031E3924776A4D50A1BC9B41
:1001800086D5C8EFF24954736E3D20071A6C71563C
:100190004B1805223F8499BEA3F0EDCAD735280F2E
:1001A00012415C7B66DDC0E7FAA9B4938EF8E5C224
:1001B000DF8C91B6AB100D2A3764795E43B2AF88FD
:1001C00095C6DBFCE15A47607D2E3314097F6245FA
:1001D000580B16312C978AADB0E3FED9C400A61790
:1001E000F32511241FBECFEFD8E0DEBFCDBF13E053
:1001F000A0E0B1E0E2E0FAE502C005900D92A8347B
:10020000B107D9F726E0A8E4B3E001C01D92A737F3
:10021000B207E1F710E0C1EFD0E004C02197FE0182
:100220000E94682BCF3ED107C9F70E945A280C9430
:10023000FF2CE6CECF92DF92EF92FF926B017C0112
:10024000C114D104E104F10469F480910601811123
:1002500009C080910801909109010E94632581E005
:1002600080930601C601880F991F880F991F8A5F26
:100270009E4FFF90EF90DF90CF900895009781F010
:10028000FC012181211104C040EA56E861E070E0E0
:10029000FC01828193810E94732590E080E00895A3
:1002A00088E090E008954F925F926F927F928F92D4
:1002B0009F92AF92BF92CF92DF92EF92FF920F93F5
:1002C0001F93CF93DF930097C9F1280139017A0179
:1002D000EC01402F8A819B810E94F1258A819B81BC
:1002E000DC01ED91FC910084F185E02D0995892BCD
:1002F00001F16701812C912C54018A819B81DC01E1
:10030000ED91FC910084F185E02D0995892B91F107
:1003100084149504A604B70469F18A819B81DC01E9
:10032000ED91FC910284F385E02D09958F3F9807AC
:10033000C1F484E0F70111928A95E9F788E090E032
:10034000DF91CF911F910F91FF90EF90DF90CF90B1
:10035000BF90AF909F908F907F906F905F904F90E5
:100360000895FFEF8F1A9F0AAF0ABF0AD6018D9337
:100370006D01C3CF90E080E0E3CF8F929F92AF9268
:10038000BF92CF92DF92EF920F931F93CF93DF93A1
:100390000097F1F06A01EC018A819B810E94762529
:1003A0008A819B81DC01ED91FC910280F381E02D3B
:1003B000A801B60109958A819B8160E0E11001C026
:1003C00061E00E948025882389F08250823088F085
:1003D00088E090E0DF91CF911F910F91EF90DF9037
:1003E000CF90BF90AF909F908F90089590E080E065
:1003F000F1CF84E090E0EECF009729F0FC018281FC
:1004000093810C94722508954F925F926F927F9220
:100410008F929F92AF92BF92CF92DF92EF92FF9214
:100420000F931F93CF93DF93CDB7DEB76A970FB6C5
:10043000F894DEBF0FBECDBF6D837E838F83988718
:1004400029013A01FA8EE98E4B015C01B7FE08C022
:10045000B094A09490948094811C911CA11CB11C18
:100460007301620177FE07C0CC24DD247601C41835
:10047000D508E608F70895014427552729873A87C4
:100480004B875C87AA24BB24C701AA27BB278D877B
:100490009E87AF87B88BEE24FF24C701B6010E9468
:1004A000242B698B7A8B8B8B9C8BA50194016D859A
:1004B0007E858F8598890E94242B6D8B7E8B8F8BF8
:1004C000988FC701B6010E94242BAB01BC01CD88D7
:1004D000DE88EF88F88CD60199278827840F951F2E
:1004E000A61FB71FF1E0E0E030E020E08417950799
:1004F000A607B70708F0F0E0F983EA833B832C8373
:1005000029893A894B895C897901DD24CC24C80E7C
:10051000D91EEA1EFB1EC816D906EA06FB0658F4C9
:1005200089819A81AB81BC810196A11DB11D89830E
:100530009A83AB83BC832D893E894F89588DCA012C
:10054000AA27BB2729893A894B895C894A01AA24B1
:10055000BB24880E991EAA1EBB1E29853A854B8591
:100560005C856D857E858F8598890E94242B860EFB
:10057000971EA81EB91E89819A81AB81BC81880E05
:10058000991EAA1EBB1E2D813E814F8158852115C3
:1005900031054105510531F14114510461047104E3
:1005A00009F191E012161306140615060CF090E0FE
:1005B00081E014141504160417040CF080E0981759
:1005C00089F0F094E094D094C094C11CD11CE11C3B
:1005D000F11CC114D104E104F10439F18094909428
:1005E000A094B094D8018D929D92AD92BC92139735
:1005F000E98DFA8DC082D182E282F3826A960FB6CB
:10060000F894DEBF0FBECDBFDF91CF911F910F9148
:10061000FF90EF90DF90CF90BF90AF909F908F9022
:100620007F906F905F904F900895B094A0949094B5
:100630008094811C911CA11CB11CD4CF8F929F92DD
:10064000AF92BF92CF92DF92EF92FF920F931F93E0
:10065000CF93DF93CDB7DEB728970FB6F894DEBF00
:100660000FBECDBF4701FE0131967F018E010B5FAA
:100670001F4FCADE09811A812B813C8140E250E084
:10068000481959096D817E818F81988504C0660F54
:10069000771F881F991F4A95D2F768017901082CA6
:1006A00004C0F694E794D794C7940A94D2F76C29BF
:1006B0007D298E299F29F1E08F1A910804C0369573
:1006C0002795179507958A94D2F70170112722274D
:1006D0003327600F711F821F931F28960FB6F8945F
:1006E000DEBF0FBECDBFDF91CF911F910F91FF9065
:1006F000EF90DF90CF90BF90AF909F908F90089534
:100700004F925F926F927F928F929F92AF92BF9221
:10071000CF92DF92EF92FF920F931F93CF93DF93CD
:10072000CDB7DEB7A2970FB6F894DEBF0FBECDBF30
:10073000C090C601D090C701E090C801F090C901F7
:10074000A70196016091A2057091A3058091A4056F
:100750009091A5050E947029882341F0C092A205BE
:10076000D092A305E092A405F092A5058BE38AA39D
:10077000C12CEE24E39401E010E020E030E0AE0173
:100780004E5D5F4F68E670E08091A0059091A105F5
:10079000F4DD8AA39E012E5E3F4F590181111BC2D9
:1007A000CC24C394E12C06E010E020E030E0A50169
:1007B00068E670E08091A0059091A10574DD86E067
:1007C000F501DE01589601900D928A95E1F7888D2A
:1007D000998D988F898F8A8D9B8D9A8F8B8F8C8D19
:1007E0009D8D9C8F8D8F2091D2013091D301A88D4A
:1007F000B98D0E946E2B60934006709341068093E2
:100800004206909343062091300630913106409184
:10081000320650913306261B370B480B590B60915B
:10082000C2017091C3018091C4019091C5011FE183
:10083000E12EF12C00E010E001DFC0904006D090E6
:100840004106E0904206F0904306DC01CB018C0D9E
:100850009D1DAE1DBF1D8093400690934106A09341
:100860004206B09343062091D2013091D301AA8D64
:10087000BB8D0E946E2B6093440670934506809357
:1008800046069093470620913406309135064091F4
:10089000360650913706261B370B480B590B6091D3
:1008A000C2017091C3018091C4019091C5011FE103
:1008B000E12EF12C00E010E0C1DEC0904406D090A3
:1008C0004506E0904606F0904706DC01CB018C0D12
:1008D0009D1DAE1DBF1D8093440690934506A093B9
:1008E0004606B09347062091D2013091D301AC8DDA
:1008F000BD8D0E946E2B60934806709349068093CD
:100900004A0690934B062091380630913906409163
:100910003A0650913B06261B370B480B590B60914A
:10092000C2017091C3018091C4019091C5011FE182
:10093000E12EF12C00E010E081DEC0904806D0905E
:100940004906E0904A06F0904B06C60ED71EE81EF8
:10095000F91EC0924806D0924906E0924A06F092EB
:100960004B0660914006709141068091420690913D
:1009700043060E94DE2920E030E040E851E30E9477
:10098000BE2A2B013C01C701B6010E94DE2920E0EE
:1009900030E040E851E30E94BE2A9B01AC01C30154
:1009A000B2010E9474290E9448299B01AC01609108
:1009B000CE017091CF018091D0019091D1010E9420
:1009C000BE2A60933C0670933D0680933E0690934A
:1009D0003F0688E0EAECF1E0DE011A9601900D9204
:1009E0008A95E1F789898A8788898B878F858C87A3
:1009F0008D858AA38E858D878A859B85AC85BD85EF
:100A00008E8F9F8FA8A3B9A388E0FE017E96DE019A
:100A10001A9601900D928A95E1F78BE68983FE0183
:100A20003A96DE01129681918D93EA15FB05D9F76E
:100A3000C12CE12C09E010E020E030E0AE014F5F76
:100A40005F4F68E670E08091AE059091AF0595DC50
:100A50008091400690914106A0914206B0914306D4
:100A60008093300690933106A0933206B0933306FC
:100A70008091440690914506A0914606B0914706A4
:100A80008093340690933506A0933606B0933706CC
:100A90008091480690914906A0914A06B0914B0674
:100AA0008093380690933906A0933A06B0933B069C
:100AB00081E090E00E944B144091620650916306E1
:100AC000609164067091650690E080E00E94471492
:100AD00080906E0690906F06A0907006B0907106A0
:100AE00020E030E040E85FEBC501B4010E947029CE
:100AF000882331F1C0906206D0906306E0906406CE
:100B0000F0906506A7019601C501B4010E94E32893
:100B10004B015C0120E030E040E054E3C701B60146
:100B20000E94BE2A9B01AC01C501B4010E94B32AF8
:100B3000181634F08DED91E090934D0680934C069D
:100B400080917206882331F08DED91E090934D06EF
:100B500080934C06609166067091670680916806E6
:100B6000909169066F5F7F4F8F4F9F4F609366062E
:100B70007093670680936806909369060E94DC294B
:100B80009B01AC0160916A0670916B0680916C06C6
:100B900090916D060E94BE2A609362067093630670
:100BA0008093640690936506A2960FB6F894DEBF14
:100BB0000FBECDBFDF91CF911F910F91FF90EF90AE
:100BC000DF90CF90BF90AF909F908F907F906F906D
:100BD0005F904F900895198E188E1B8E1A8E1D8E61
:100BE0001C8E01CE2F923F924F925F926F927F9216
:100BF0008F929F92AF92BF92CF92DF92EF92FF922D
:100C00000F931F93CF93DF93ECE4F6E080E090E046
:100C1000A0E8BFEB82A393A3A4A3B5A38DEC9CECA7
:100C2000ACE4BEE3868F978FA0A3B1A38AEF92E6D0
:100C3000A1E1BCE984839583A683B7838CE394EE1A
:100C4000A5E4B3E680879187A287B3878FE798E70B
:100C5000A4E2B5ED84879587A687B78780E59BE8F2
:100C6000AEE8B4E2808B918BA28BB38BA2E6B3E0AB
:100C7000B383A283CCE5D3E01196DC93CE9381EFCE
:100C800091E0998388839B838A839D838C8380E60C
:100C900096E015969C938E93149780E596E01396B4
:100CA0009C938E93129782E696E017969C938E9370
:100CB0001697A2E5B3E08AE0ED0119928A95E9F76B
:100CC000A8E4B3E0B58BA48B85E190E011969C93EA
:100CD0008E9384E991E013969C938E9312978AE603
:100CE00091E015969C938E9314978EE291E017965F
:100CF0009C938E9316978AE091E019969C938E931D
:100D00001897C8E9D5E0188282E3F82EF88E03E33D
:100D1000098F94E3292E2A8E25E3322E3B8E36E36B
:100D2000432E4C8E47E3542E5D8E58E3652E6E8E17
:100D300069E3762E7F8E11E318A370E3E72EE9A214
:100D40001AA31BA31CA3FDA21EA30FA380EB95E077
:100D50009F838E83EEEBCE2EE1E0DE2EF6018085C2
:100D60009185A285B3858A879B87AC87BD871D82C5
:100D7000812C912C5401839489829A82AB82BC820B
:100D800050E040E060E070E0CB0154DA998788875A
:100D900040EA56E861E070E071DAF1E0FD831E861A
:100DA000E0EFF5E0F0820093F1052092F205309239
:100DB000F3054092F4055092F5056092F6057092A5
:100DC000F7051093F805E092F9051093FA051093D2
:100DD000FB051093FC05F092FD051093FE050093B2
:100DE000FF05FD8BEC8B1B8A8F86988AA98ABA8AAD
:100DF00050E040E060E070E0CB011CDA9F8B8E8B0E
:100E000040EA56E861E070E039DA81E08B8BE60178
:100E100088819981AA81BB818093300690933106A5
:100E2000A0933206B0933306809334069093350630
:100E3000A0933606B0933706809338069093390610
:100E4000A0933A06B0933B06DF91CF911F910F918B
:100E5000FF90EF90DF90CF90BF90AF909F908F90DA
:100E60007F906F905F904F903F902F90089580916A
:100E70009805811118C081E08093980580919905AB
:100E800090919A05A0919B05B0919C050197A105B1
:100E9000B10549F480919D05882329F08091A00532
:100EA0009091A105A9DA8091A605811118C081E071
:100EB0008093A6058091A7059091A805A091A9050A
:100EC000B091AA050197A105B10549F48091AB0540
:100ED000882329F08091AE059091AF058DCA0895C1
:100EE000EF92FF920F931F93CF93DF93EA01F901E3
:100EF000DC011496ED90FC90159712964D915C9143
:100F000013974E0D5F1D2881398118960D911C9104
:100F100019970217130730F00D911C911197012BAF
:100F200009F441C08A01021B130BDC0118968D9154
:100F30009C918E199F09800F911F86179707DCF1EE
:100F4000C901860F971F8417950778F47183608312
:100F500033832283158214821782168288819981B5
:100F6000680F791F7983688316C0118300833383E8
:100F70002283601B710B7583648390E080E01616FA
:100F8000170614F49E2D8F2D96838783D701A60F05
:100F9000B71FB983A88380E0DF91CF911F910F9194
:100FA000FF90EF90089518968D919C91821B930B62
:100FB000861797075CF681E0EFCFCF92DF92EF9232
:100FC000FF92CF93DF936B0184E4869FE001879FBC
:100FD000D00D1124C259DC4F8AA99BA9009721F09A
:100FE0000E945D2C1BAA1AAA84E48C9DF0018D9DA1
:100FF000F00D1124E259FC4F86A997A9009711F032
:101000000E945D2C84E48C9DF0018D9DF00D1124D7
:10101000E259FC4F138A128A168A178A108E118E93
:10102000128E138E148E158E168E178E10A211A28C
:1010300081E090E093A382A315A214A216A217A2A6
:1010400010A611A613A612A615A614A616A617A6D4
:1010500010AA11AA13AA12AA15AA14AA17AA16AAA4
:1010600011AE10AE12AE13AE14AE15AEDF01DE96A9
:101070001D921D921D921C921397EE5BFF4F1182E1
:101080001082DF91CF91FF90EF90DF90CF90089585
:10109000CF93DF93FB01DC016D917C91DB01169610
:1010A000CD91DC918081918123E0880F991F2A9551
:1010B000E1F7AA81BB81A80FB91F8D919C9111976F
:1010C00024853585220F331FEB016A817B81EB017B
:1010D000C20FD31F0990D881C02D14962D913C9139
:1010E00061E070E0232B11F062E070E0C69F900198
:1010F000C79F300DD69F300D1124A085B1852A9F42
:10110000B0012B9F700D3A9F700D1124A481B58101
:101110002A9FF0012B9FF00D3A9FF00D11248E0FA6
:101120009F1FFA019183808373836283DF91CF9144
:1011300008952F923F924F925F926F927F928F927B
:101140009F92AF92BF92CF92DF92EF92FF920F9356
:101150001F93CF93DF9300D000D000D0CDB7DEB780
:10116000DC011496ED91FC910190F081E02D8085D9
:1011700091859A838983A281B381BC83AB83FB0170
:1011800081909190A190B190C12CD12C7601C8147E
:10119000D904EA04FB04CCF026960FB6F894DEBF1F
:1011A0000FBECDBFDF91CF911F910F91FF90EF90B8
:1011B000DF90CF90BF90AF909F908F907F906F9077
:1011C0005F904F903F902F900895448055806680A7
:1011D00077804085518562857385CF0140969E83D7
:1011E0008D83A081B1819D0183E0220F331F8A95F9
:1011F000E1F7A981BA8112968D919C91D901A80F2E
:10120000B91F2D903C9011970484F585E02DEE0FC9
:10121000FF1F8B819C81E80FF91F0190F081E02D69
:1012200014968D919C91892B41F581E090E0E89F87
:101230009001E99F300DF89F300D1124249F80010B
:10124000259F100D349F100D1124249DC001259D54
:10125000900D349D900D1124A8016D817E81820D29
:10126000931D0E94E62CED81FE81E00FF11F9FEFA0
:10127000C91AD90AE90AF90A8ACF82E090E0D7CFE1
:10128000CF93DF93DB01AC52BE4F2C91222369F048
:1012900024E4269FF001279FF00D1124E259FC4F12
:1012A000EF0119922A95E9F71C9224E4269FF00198
:1012B000279FF00D1124E259FC4F148215821682EB
:1012C00017821186108613861286118A108A178655
:1012D0001686DF91CF9171CE2F923F924F925F92FF
:1012E0006F927F928F929F92AF92BF92CF92DF9236
:1012F000EF92FF920F931F93CF93DF93CDB7DEB79B
:1013000028970FB6F894DEBF0FBECDBF24E4269F0A
:10131000F001279FF00D1124E259FC4F0481158143
:1013200026813781012B022B032B09F4B7C02A0138
:101330006B017C0110E000E0812C912C54013F01F5
:101340009F01285F3F4F3C832B83CF0104969E83F0
:101350008D83AB81BC818D919C91ED81FE8140811B
:1013600051816281738184169506A606B706E4F161
:101370000E945D2CD3011A968D919C91892B09F0C6
:101380007EC084E48C9DD0018D9DB00D1124A259A6
:10139000BC4FBC83AB8350968D919C910E945D2C79
:1013A000EB81FC81868597850E945D2CC701B60183
:1013B00004DEC701B60128960FB6F894DEBF0FBE53
:1013C000CDBFDF91CF911F910F91FF90EF90DF90F4
:1013D000CF90BF90AF909F908F907F906F905F90D5
:1013E0004F903F902F904CCFFC01E00FF11F928166
:1013F0009983A381AA839F83A887312C212C24144D
:10140000350464F089819A810E945D2CEFEF8E1A79
:101410009E0AAE0ABE0A0C5F1F4F9BCFAF81B885F4
:10142000ED91FD91B887AF83309759F08481958114
:101430000E945D2CEF81F8853297808191810E9416
:101440005D2CBFEF2B1A3B0ADACF800F911FFC01F6
:10145000848195810E945D2C2B813C812F5F3F4FC1
:101460003C832B83025F1F4FF501808191812B818B
:101470003C81241535054CF30E945D2C82CF10E091
:1014800000E01C821B8224E42C9DC0012D9D900D48
:101490001124DC01A858BC4F5D01E6CF28960FB699
:1014A000F894DEBF0FBECDBFDF91CF911F910F919A
:1014B000FF90EF90DF90CF90BF90AF909F908F9074
:1014C0007F906F905F904F903F902F90089524E40D
:1014D000269FF001279FF00D1124E259FC4F8289CD
:1014E00093890497029758F485E090E0938B828B60
:1014F0008FEF9FEFDC01828F938FA48FB58F0895BC
:101500002F923F924F925F926F927F928F929F9213
:10151000AF92BF92CF92DF92EF92FF920F931F9301
:10152000CF93DF93CDB7DEB7AA970FB6F894DEBF9F
:101530000FBECDBF9AA389A37E8B6D8B1A01098B39
:101540001A8B2B8B3C8B84E429893A89829F60011A
:10155000839FD00C1124860102591C4F89899A89D6
:10156000AB89BC89F80180839183A283B383AB01EB
:10157000BC01CD01B1DED601AE58BC4F84E0F10113
:1015800001900D928A95E1F7F4E02F0E311C64E092
:1015900070E0D80114968D919C910E94A72BF801C0
:1015A00091878087892B09F0F5C04D895E8969890B
:1015B0007A898B899C8990DE81E0AA960FB6F8948F
:1015C000DEBF0FBECDBFDF91CF911F910F91FF9076
:1015D000EF90DF90CF90BF90AF909F908F907F90D3
:1015E0006F905F904F903F902F900895A9A5BAA556
:1015F0008D919C91E98DFA8DE80FF91FF88FEF8B93
:10160000D1018D919C91880F991FA9A1BAA1ED914B
:10161000FC91E80FF91F80819181EF89F88D91830A
:101620008083D10114962D913D914D915C91179736
:101630002BA33CA34DA35EA362E070E08D899E893D
:101640000E94A72BEF89F88D93838283892B09F45D
:10165000ACCFF8E02F0E311C412C512C32012BA1C4
:101660003CA14DA15EA142165306640675069CF08E
:101670002B8D3C8D4D8D5E8D2F5F3F4F4F4F5F4FBC
:101680002B8F3C8F4D8F5E8F498D5A8D4C5F5F4FF6
:101690005A8F498F90C0610124E0C20ED11CD10144
:1016A000ED90FC90EE0CFF1CEF89F88D8281938108
:1016B000E80EF91E68E070E081E090E00E94A72B40
:1016C0008C01D7018D939C93892B09F46ECF84E014
:1016D000F601D80101900D928A95E1F7B8E02B0E42
:1016E000311CF80180819181A281B38118161906FD
:1016F0001A061B06DCF464E070E00E94A72BD801F8
:1017000015969C938E931497892B09F44ECFD12C68
:10171000C12C812C912C5401F80180819181A281EE
:10172000B38188169906AA06BB0634F0FFEF4F1A5C
:101730005F0A6F0A7F0A93CFF801E480F580EC0C12
:10174000FD1C80E1F101DE01119601900D928A9558
:10175000E1F7F0E12F0E311CA701BE016F5F7F4F53
:10176000A9A1BAA114968D919C9192DCF801868171
:101770009781D70112962D913C91820F931F9783E9
:101780008683BFEF8B1A9B0AAB0ABB0AE4E0CE0E3E
:10179000D11CC2CF1A8E198E1B8E1C8E1D8E1E8ED2
:1017A00018A30F8FA8014C5F5F4F58A74FA3C80124
:1017B00008969AA789A7EFA1F8A580819181A281B7
:1017C000B3812B8D3C8D4D8D5E8D281739074A07CF
:1017D0005B070CF40BCF6EE070E08D899E890E9450
:1017E000A72BAF8DB8A11B969C938E931A97B12C03
:1017F000A12CD12CC12CF12CE12C24E4E989FA890B
:101800002E9FC0012F9F900D11249C0128583C4F02
:10181000388F2F8B88248394912C4D895E89C41630
:10182000D50654F184E4A989BA898A9F80018B9FE7
:10183000100D112402591C4FF80115861486C7019A
:1018400033E0880F991F3A95E1F70E94C12BD80128
:1018500051969C938E935097892B09F4A6CEC7017D
:10186000880F991F0E94C12BF80197878687892BC3
:1018700009F49BCE80E0A1CED1014D905D906D909A
:101880007D901D0177FC91CEEF89F88D008111814B
:101890000A0D1B1DD80111969C928E924114510481
:1018A0006104710429F1C2010E94C12BF8019583E2
:1018B0008483892B09F479CEF80153824282848192
:1018C000958197838683918780871386128681E02E
:1018D00090E045284628472811F490E080E0E80E83
:1018E000F91EFFEFCF1ADF0A2EE0A20EB11C95CF32
:1018F00015961C921E921497DFCF2F923F924F9213
:101900005F926F927F928F929F92AF92BF92CF928F
:10191000DF92EF92FF920F931F93CF93DF93CDB798
:10192000DEB76A970FB6F894DEBF0FBECDBF9E8BB1
:101930008D8B49015A0184E4829F7001839FF00CD2
:101940001124970122593C4F6901FB01808191814B
:10195000F901958B848BD701AC57BC4FFB013496B2
:1019600084E001900D928A95E1F7D701A857BC4F0A
:10197000FB01389684E001900D928A95E1F7D7013A
:10198000A457BC4FFB013C9684E001900D928A95D0
:10199000E1F7D701A456BC4FFB01709684E001909B
:1019A0000D928A95E1F78B010C5E1F4FF90186A518
:1019B00097A5A0A9B1A918161906DCF5880F991FDB
:1019C000880F991F0E94C12BF60193AB82AB892B24
:1019D00009F4D3C0312C212C412C512C3201960119
:1019E000225D3F4F388F2F8BC601C2969A8F898F09
:1019F000F496FC8BEB8BB301A2012FEF421A520A33
:101A0000620A720AEF89F88D80819181A281B38187
:101A1000481759076A077B070CF47BC0F60184A9B5
:101A200095A90E94C12BF60197AB86AB892B09F4CF
:101A3000A4C0F80180819181A281B38124E4289D12
:101A4000F001299DF00D1124E259FC4FAC01BD01BC
:101A50004D7F21E030E0452B462B472B11F030E045
:101A600020E033A322A324E4289DF001299DF00D5A
:101A70001124E259FC4F0197A109B10921E030E09E
:101A80000297A105B10510F030E020E035A324A3B2
:101A9000D701AC56BC4FF801349684E001900D920A
:101AA0008A95E1F784E4889DF001899DF00D112469
:101AB000E259FC4F868D978DA0A1B1A1B7FF58C008
:101AC000B095A095909581959F4FAF4FBF4F82AF36
:101AD00093AFA4AFB5AF168E178E10A211A280E0FF
:101AE0006A960FB6F894DEBF0FBECDBFDF91CF91DF
:101AF0001F910F91FF90EF90DF90CF90BF90AF902C
:101B00009F908F907F906F905F904F903F902F901D
:101B10000895E98DFA8D808191819C01220D331DFC
:101B20003A8B298B80E1F801DE01119601900D922C
:101B30008A95E1F7005F1F4F49895A89BE016F5F9F
:101B40007F4FED89FE8984819581A2DAEB89FC893A
:101B500080819181E989FA8922813381820F931FE3
:101B6000EB89FC8991838083F4E02F0E311C43CFF5
:101B700012AE13AE14AE15AEB2CFC501B4011DDA6C
:101B800081E0AECFCF92DF92EF92FF92CF93DF93BF
:101B90001092F60324E4269FF001279FF00D1124F4
:101BA000E259FC4F15A614A630E020E0D12CC12C40
:101BB000DF011A96C1E0D0E0C416D506F4F024E4A3
:101BC000269FF001279FF00D1124E259FC4F13A628
:101BD00012A611AE10AEDF01DE961D921D921D926F
:101BE0001C92139782E090E0938B828BDF91CF91D0
:101BF000FF90EF90DF90CF900895ED91FC911197B9
:101C0000E20FF31FE280F3801E141F0454F4E480FB
:101C1000F580F782E682F186E08613861286D1830C
:101C2000C083EFEFCE1ADE0A225F3F4FC5CF24E418
:101C3000269FF001279FF00D1124E259FC4F138AD3
:101C4000128A4ACB24E4269FF001279FF00D11242D
:101C5000E259FC4F8289938981309105C8F0853023
:101C6000910518F0059769F008958FEF9FEFDC015B
:101C7000828F938FA48FB58F85E090E0938B828BBA
:101C800008958FEF9FEFDC01828F938FA48FB58F24
:101C9000089524E4249FD001259FB00D1124A2595A
:101CA000BC4F2EE0AC01249FC001259F900D112454
:101CB0001A96ED91FC91E80FF91F81E08093F603ED
:101CC00082859385918780874085518526813781DC
:101CD00081E090E04217530711F090E080E091839B
:101CE000808308952F923F924F925F926F927F92DE
:101CF0008F929F92AF92BF92CF92DF92EF92FF921C
:101D00000F931F93CF93DF93CDB7DEB7C055D109A3
:101D10000FB6F894DEBF0FBECDBF9EAF8DAF4BA701
:101D20005CA76DA77EA76801790184E4809FF0011C
:101D3000819FF00D1124E259FC4F228533852396B3
:101D40003FAF2EAF239782899389029761F486A5CE
:101D500097A5A0A9B1A9892B8A2B8B2BC9F584E063
:101D600090E0938B828B84E48C9DF0018D9DF00D2F
:101D70001124E259FC4F828993898230910509F040
:101D800037C282AD93ADA4ADB5AD22242394312CDE
:101D9000181619061A061B060CF42FC2C05BDF4F7B
:101DA0000FB6F894DEBF0FBECDBFDF91CF911F916C
:101DB0000F91FF90EF90DF90CF90BF90AF909F90EA
:101DC0008F907F906F905F904F903F902F900895ED
:101DD000848995894DAD5EAD8417950721F606A9D6
:101DE00017A918AE1FAA1BAA1CAA1DAA1EAA1F016A
:101DF000CF018E9627969FAF8EAF2797DF01D296A1
:101E00002996BFAFAEAF2997F8962B96FFAFEEAFEE
:101E10002B9791012A5D3F4F2D963FAF2EAF2D9707
:101E2000A1014E5D5F4F2F965FAF4EAF2F970A9780
:101E300061969FAF8EAF61972796EEADFFAD279766
:101E400080819181A281B3812BA93CA94DA95EA972
:101E5000281739074A075B0744F081E090E0D10179
:101E6000D9969C938E93D8977ECF2996AEADBFAD71
:101E70002997ED91FC912FA938ADE20FF31F428114
:101E800053815AAF49AF50815FAF818121968FAFA7
:101E900021972B96AEADBFAD2B978D919C91892B41
:101EA00021F12D96EEADFFAD2D9780809180A2801F
:101EB000B3801AAB09AB5FA72196FFAD2197F8ABB2
:101EC00029AD3AAD369527953695279525963FAF9E
:101ED0002EAF25971CAE1BAE2596AEADBFAD259798
:101EE000EBADFCADEA17FB070CF149AD5AAD6FAD98
:101EF00021967FAD2197C8010E94E62C89AD9AAD4D
:101F00008C7F080F191F2BA93CA94DA95EA92F5F33
:101F10003F4F4F4F5F4F2BAB3CAB4DAB5EAB4FA931
:101F200058AD4C5F5F4F58AF4FAB86CF2F96AEADDD
:101F3000BFAD2F978D919C91892B71F1EFA5F8A9D9
:101F40004080518062807380A3019201C501B40179
:101F50000E947029181664F0A9A9BAA92D913D9183
:101F60004D915C91C501B4010E94B32A1816BCF1D1
:101F7000A3019201C501B4010E94702987FF0CC022
:101F8000E9A9FAA92081318142815381C501B401B7
:101F90000E947029882319F16196AEADBFAD61979B
:101FA0008D919C91892B09F445C0EFA5F8A940803B
:101FB000518062807380A3019201C501B4010E9427
:101FC000B32A18161CF5A9A9BAA92D913D914D91D6
:101FD0005C91C501B4010E94702918165CF184E47B
:101FE0008C9DF0018D9DF00D1124E259FC4F868DE2
:101FF000978DA0A1B1A1892B8A2B8B2B69F183E04E
:1020000090E0938B828B81E090E02CC0A301920141
:10201000C501B4010E94702981110CC0E9A9FAA977
:102020002081318142815381C501B4010E94702910
:1020300087FDD5CF2BAD3CAD2F5F3F4F3CAF2BAFD6
:1020400049A95AA94C5F5F4F5AAB49AB8FA598A9D4
:10205000049698AB8FA740CF84E090E0938B828B5F
:1020600086AD97AD93A782A77ECEEBADFCAD808108
:102070009181F401EE0FFF1FEE0FFF1FE80FF91F14
:10208000A081B1818C9181110AC0FFEF8F1A9F0A44
:10209000AF0ABF0A8DA29EA2AFA2B8A68FC183309D
:1020A000A1F30280F381E02D2FA938ADE20FF31FD9
:1020B000808191819AAB89AB892B39F34F5F5F4F58
:1020C0006F4F7F4F49875A876B877C879E01235EBE
:1020D0003F4FAE01475D5F4F64E070E0C8010E9472
:1020E00070078111D0C18D819E81AF81B885049622
:1020F000A11DB11D8D839E83AF83B8874D8D5E8DED
:10210000BE016B5D7F4F8F8D98A10E94E62C8BA145
:102110009CA1009761F06D8D7E8DA5E2B0E0AC0FC3
:10212000BD1F6A0F7B1F49A15AA10E94E62C1CAA61
:102130001BAA412C512C3201E9A9FAA98081918175
:10214000A281B381481659066A067B060CF09DCF22
:10215000E9A9FAA9848195812BA93CA9280F391FE7
:1021600038AB2FA7D90112966D917C919E01235E09
:102170003F4FAE01475D5F4FC8010E94700781115C
:1021800082C1EFA5F8A982819381092E000CAA0BC8
:10219000BB0B4D815E816F817885840F951FA61FD3
:1021A000B71F8D839E83AF83B887608171814D8D0A
:1021B0005E8D8F8D98A10E94E62C8BA19CA100972B
:1021C00061F0AFA5B8A96D917C912D8D3E8D620F08
:1021D000731F49A15AA10E94E62CBFEF4B1A5B0A5C
:1021E0006B0A7B0AEBA9FCA93496FCABEBABA4CF42
:1021F000312C212C049709F0D1CD8EE0EDADFEAD50
:102200008E9F80018F9F100D112423962EAD3FAD20
:102210002397020F131FD80112964D915C911397CB
:102220004115510509F4BACD16968D919C919AA746
:1022300089A780E1FE013196DF011D928A95E9F7B9
:10224000C98ADA8AEB8AFC8A2114310409F458C05D
:1022500084E48C9DF0018D9DF00D1124E259FC4F1A
:10226000DF01DE968D909D90AD90BC9082AD93ADD8
:10227000A4ADB5AD88169906AA06BB0609F040C004
:10228000F801848195810084F185E02D349624E065
:10229000DE01559601900D922A95E1F72D893E8930
:1022A000285F3F4F3E8B2D8BD80118966D917C9106
:1022B0001997260F371F19963C932E931897189647
:1022C0002D913C911997480F591F241B350B37FD51
:1022D00006C0820F931F19969C938E93189784E4DF
:1022E0008C9DF0018D9DF00D1124E455FC4FB1E063
:1022F0008B1A9108A108B10880829182A282B382D0
:102300009E012B5E3F4FAE01475D5F4F64E170E081
:10231000C8010E9470078111B6C08CE090E0A0E077
:10232000B0E08D839E83AF83B8879E01235E3F4FCD
:10233000AE01475D5F4F64E070E0C8010E94700726
:102340008111A1C080E190E0A0E0B0E08D839E8388
:10235000AF83B8874D8D5E8DBE01655D7F4F8F8DDC
:1023600098A10E94E62C8BA19CA1009761F06D8D35
:102370007E8DEBE2F0E0EC0FFD1F6E0F7F1F49A199
:102380005AA10E94E62C1DA21EA21FA218A62DADC6
:102390003EAD220F331F38AF2FAB24E42C9DC0017C
:1023A0002D9D900D112482599C4FAC014C5F5F4FC5
:1023B0005AAF49AFDC011896BCAFABAF8DA09EA061
:1023C000AFA0B8A449855A856B857C85E9ADFAAD87
:1023D00080819181A281B38188169906AA06BB06E5
:1023E0000CF443CE452B462B472B09F4D7CC8AE17E
:1023F00090E0A0E0B0E089839A83AB83BC832DADED
:102400003EADC901330FAA0BBB0B8D879E87AF87EB
:10241000B88B4D895E89BE016F5F7F4F8F89988D24
:102420000E94E62C8B8D9C8D009761F06D897E89D2
:1024300041E050E04C0F5D1F640F751F498D5A8DB0
:102440000E94E62C89A59AA5D80117969C938E9395
:10245000169711961C921E92232809F49FCC84E4AF
:102460008C9DF0018D9DF00D1124E455FC4F808171
:102470009181A281B3810196A11DB11D80839183B9
:10248000A283B3838BCC232809F088CC84E48C9D71
:10249000F0018D9DF00D1124E259FC4F81E090E098
:1024A00095A784A785E090E0938B828B77CCCF9221
:1024B000DF92EF92FF920F931F9324E4269FF00187
:1024C000279FF00D1124E259FC4F228933892115F1
:1024D000310509F452C06B017C0121303105B1F4A2
:1024E00082A593A59C012F5F3F4F33A722A7092EFA
:1024F000000CAA0BBB0B028D138D248D358D80171C
:102500009107A207B307C9F5C7013CDB84E48C9DA2
:10251000F0018D9DF00D1124E259FC4F82899389C1
:10252000039759F582A593A59C012F5F3F4F33A7D1
:1025300022A7092E000CAA0BBB0B468D578D60A15C
:1025400071A184179507A607B707BCF086AD97ADB4
:1025500093A782A784E090E0938B828B82AD93ADAA
:10256000A4ADB5AD181619061A061B0634F4EE5BB9
:10257000FF4F81E090E0918380831F910F91FF9046
:10258000EF90DF90CF90089524E4269FF001279FDD
:10259000F00D1124E259FC4F828993890497B1F41C
:1025A00082A593A5019693A782A7092E000CAA0BDA
:1025B000BB0B46895789608D718D84179507A607D7
:1025C000B70721F485E090E0938B828B08952F92DA
:1025D0003F924F925F926F927F928F929F92AF92B3
:1025E000BF92CF92DF92EF92FF920F931F93CF9300
:1025F000DF93CDB7DEB72E970FB6F894DEBF0FBED0
:10260000CDBFDC0149835A836B837C83290184E439
:10261000849FF001859FF00D1124E259FC4F228820
:102620003388C1010497029708F0D7C011961C9215
:102630001E9213961C921E92129715861486912C48
:10264000812C90E080E08F019F01205F3F4F388711
:102650002F833F013CE0630E711CBF01625F7F4F1F
:102660007A8769873A96FC87EB87EF81F885208126
:102670003181F30140815181E985FA85A080B180E3
:10268000841595050CF446C011965C934E931396F1
:102690003C932E9312971596BC92AE921497452BAD
:1026A00001F5F5E02F163104E1F41092F603F8017C
:1026B000828D938DA48DB58DAE014F5F5F4F64E029
:1026C00070E08F3F9F4FAF4FBF4F09F07AC080E25D
:1026D00090E00E943E1C69817A818B819C81A201DD
:1026E000A6DA2E960FB6F894DEBF0FBECDBFDF91EF
:1026F000CF911F910F91FF90EF90DF90CF90BF90FF
:10270000AF909F908F907F906F905F904F903F9091
:102710002F900895EB85FC8560817181FB01E80DA8
:10272000F91DFE87ED8760817181672B89F5E08453
:10273000F184628173817E836D83668177816A0112
:10274000E3E0CC0CDD1CEA95E1F72C0D3D1D440FB8
:10275000551F4A0D5B1DFA0191838083F30140816F
:1027600051814F5F5F4F51834083F901F382E282D1
:10277000ED85FE8573876287E616F70670F46E199D
:102780007F09F90171836083158214821782168292
:102790000196FEE08F0E911C68CFED85FE85C4800A
:1027A000D5804D815E814C0D5D1D4E195F09F9018B
:1027B000518340836C197D0975836483D782C682F7
:1027C000E7CF8FE190E00E943E1CF80113A612A60D
:1027D00081E090E0938B828B84CF158614861196CE
:1027E0001C921E9213961C921E9212977ACFEF9211
:1027F000FF920F931F93CF93DF937C018B01EA012C
:102800000E941C1D81111EC08091D6019091D7019C
:10281000049711F5DF91CF911F910F91FF90EF90E9
:10282000089528ED38EB45E050E060E070E0CB0122
:102830000E94D41FAE01B801C7010E94E21FC80167
:102840000E94AD1F8091F7039091F803892BE1F668
:102850008881882331F3D8CF83E090E09093D7012B
:102860008093D601D7CFCF93DF932091D6013091BB
:10287000D7012430310541F0EB010E94E21FCE0167
:10288000DF91CF910C94AD1FDF91CF9108950C94FF
:10289000DE230C94D3230C94C1230C94BD1F0C9401
:1028A0006523089570E060E090E080E00C94F71CF0
:1028B0000895AF92BF92CF92DF92EF92FF920F9363
:1028C0001F93CF93DF9300D0CDB7DEB75C018B01B0
:1028D00069017A0190E080E0C114D104E104F104BF
:1028E00069F40F900F90DF91CF911F910F91FF909E
:1028F000EF90DF90CF90BF90AF9008959C2D8D2DDD
:10290000C114D10421E0E206F10410F09FEF8FEF33
:102910009E012F5F3F4F492F582FB801C5010E94DC
:102920006F248F3F9807E9F229813A81C21AD30AAE
:10293000E108F108020F131FCFCF089508951F92E9
:102940000F920FB60F9211242F933F934F935F93E3
:102950006F937F938F939F93AF93BF93EF93FF9367
:10296000E091D801F091D9010995FF91EF91BF91C4
:10297000AF919F918F917F916F915F914F913F9117
:102980002F910F900FBE0F901F9018951F920F92CE
:102990000FB60F9211242F933F934F935F936F9332
:1029A0007F938F939F93AF93BF93EF93FF93E091A8
:1029B000DA01F091DB010995FF91EF91BF91AF91A1
:1029C0009F918F917F916F915F914F913F912F9147
:1029D0000F900FBE0F901F9018951F920F920FB679
:1029E0000F9211242F933F938F939F93AF93BF9395
:1029F0008091FA039091FB03A091FC03B091FD0339
:102A00003091F90323E0230F2D3758F50196A11DCE
:102A1000B11D2093F9038093FA039093FB03A093D5
:102A2000FC03B093FD038091FE039091FF03A091FE
:102A30000004B09101040196A11DB11D8093FE0315
:102A40009093FF03A0930004B0930104BF91AF9152
:102A50009F918F913F912F910F900FBE0F901F90DC
:102A6000189526E8230F0296A11DB11DD2CF3FB7BE
:102A7000F8948091FE039091FF03A0910004B0911F
:102A8000010426B5A89B05C02F3F19F00196A11D92
:102A9000B11D3FBFBA2FA92F982F8827BC01CD01A8
:102AA000620F711D811D911D42E0660F771F881F07
:102AB000991F4A95D1F708958F929F92AF92BF9236
:102AC000CF92DF92EF92FF926B017C01D0DF4B013E
:102AD0005C01C114D104E104F104D9F02EDFC7DF99
:102AE000681979098A099B09683E73408105910537
:102AF00080F321E0C21AD108E108F10888EE880EBF
:102B000083E0981EA11CB11CC114D104E104F1049E
:102B100031F7FF90EF90DF90CF90BF90AF909F90F4
:102B20008F900895789484B5826084BD84B5816067
:102B300084BD85B5826085BD85B5816085BDEEE6C5
:102B4000F0E0808181608083E1E8F0E010828081A4
:102B500082608083808181608083E0E8F0E0808112
:102B600081608083E1EBF0E0808184608083E0EB32
:102B7000F0E0808181608083EAE7F0E0808184601A
:102B80008083808182608083808181608083808176
:102B9000806880831092C1000895833081F028F40A
:102BA000813099F08230A9F008958730A9F08830FB
:102BB000C9F08430B1F4809180008F7D03C0809192
:102BC00080008F7780938000089584B58F7784BDCF
:102BD000089584B58F7DFBCF8091B0008F7780936F
:102BE000B00008958091B0008F7DF9CF1F93CF93EF
:102BF000DF93282F30E0F901EA56FF4F8491F90165
:102C0000E655FF4FD491F901E254FF4FC491CC2314
:102C1000A1F0162F8111C1DFEC2FF0E0EE0FFF1FA6
:102C2000EE52FF4FA591B4918FB7F894EC9111112A
:102C300008C0D095DE23DC938FBFDF91CF911F9129
:102C40000895DE2BF8CFFC01918D228D892F90E025
:102C5000805C9F4F821B91098F7399270895FC0117
:102C6000918D828D981731F0828DE80FF11D858D41
:102C700090E008958FEF9FEF0895FC01918D828D74
:102C8000981761F0A28DAE0FBF2FB11D5D968C918C
:102C9000928D9F5F9F73928F90E008958FEF9FEFCB
:102CA0000895FC01538D448D252F30E0842F90E052
:102CB000821B930B541710F0CF9608950197089537
:102CC000FC01A48DA80FB92FB11DA35ABF4F2C91A1
:102CD000848D90E001968F739927848FA689B78998
:102CE0002C93A089B1898C91837080648C93938D8F
:102CF000848D981306C00288F389E02D80818F7D32
:102D000080830895CF93DF93EC01888D8823B1F001
:102D1000AA89BB89E889F9898C9185FD03C08081E6
:102D200086FD0CC00FB607FCF7CF8C9185FFF2CF64
:102D3000808185FFEDCFCE01C3DFEACFDF91CF9158
:102D40000895EF92FF920F931F93CF93DF93EC01BF
:102D500081E0888F9B8D8C8D98131AC0E889F98942
:102D6000808185FF15C09FB7F894EE89FF89608345
:102D7000E889F98980818370806480839FBF81E0C6
:102D800090E0DF91CF911F910F91FF90EF90089508
:102D9000F62E0B8D10E00F5F1F4F0F731127E02EE3
:102DA0008C8D8E110BC00FB607FCFACFE889F9891C
:102DB000808185FFF5CFCE0183DFF2CFEB8DEC0F65
:102DC000FD2FF11DE35AFF4FF0829FB7F8940B8F50
:102DD000EA89FB8980818062D0CFCF92DF92EF9227
:102DE000FF921F93CF93DF93EC016A017B01122FB7
:102DF000E889F98982E08083C11481EED806E10474
:102E0000F104A1F060E079E08DE390E0A701960184
:102E10000E94462B21503109410951095695479589
:102E200037952795211580E1380798F0E889F989C9
:102E3000108260E874E88EE190E0A70196010E949C
:102E4000462B21503109410951095695479537952F
:102E50002795EC85FD853083EE85FF852083188ED0
:102E6000EC89FD891083EA89FB89808180618083F8
:102E7000EA89FB89808188608083EA89FB89808177
:102E800080688083EA89FB8980818F7D8083DF91E0
:102E9000CF911F91FF90EF90DF90CF9008951F92F8
:102EA0000F920FB60F9211242F938F939F93EF934E
:102EB000FF93E0911204F09113048081E0911804D3
:102EC000F091190482FD1BC0908180911B048F5FDB
:102ED0008F7320911C04821741F0E0911B04F0E0F5
:102EE000EE5FFB4F958F80931B04FF91EF919F91B5
:102EF0008F912F910F900FBE0F901F90189580818A
:102F0000F4CF1F920F920FB60F9211242F933F937D
:102F10004F935F936F937F938F939F93AF93BF93E1
:102F2000EF93FF9382E094E0CBDEFF91EF91BF91AE
:102F3000AF919F918F917F916F915F914F913F9151
:102F40002F910F900FBE0F901F901895E2E0F4E0C4
:102F50001382128288EE93E0A0E0B0E08483958330
:102F6000A683B7838EED92E09183808385EC90E019
:102F70009587848784EC90E09787868780EC90E043
:102F8000918B808B81EC90E0938B828B82EC90E034
:102F9000958B848B86EC90E0978B868B118E128EAE
:102FA000138E148E089590E080E00895AF92BF9242
:102FB000CF92DF92EF92FF920F931F93CF93DF9305
:102FC0006C017B018B01040F151FEB015E01AE1834
:102FD000BF08C017D10759F06991D601ED91FC9156
:102FE0000190F081E02DC6010995892B79F7C50183
:102FF000DF91CF911F910F91FF90EF90DF90CF90D5
:10300000BF90AF900895813039F018F0823051F0C0
:10301000089510926E00089580916F008D7F8093C7
:103020006F000895809170008D7F8093700081E023
:103030008093B0008091B100887F84608093B1005C
:103040001092B3000895CF93C82F8091DC01C8136C
:103050000BC0ECEDF0E084919FEF9093DC01D3DFA7
:1030600060E08C2FCF91C2CD8FEFF9CF1F920F92DE
:103070000FB60F9211242F933F934F935F936F934B
:103080007F938F939F93AF93BF93EF93FF93809121
:10309000A2049091A304A091A404B091A504892B4B
:1030A0008A2B8B2BD1F190919F04E091A004F09199
:1030B000A1048081892780838091A2049091A30438
:1030C000A091A404B091A504181619061A061B06AF
:1030D0009CF48091A2049091A304A091A404B091C7
:1030E000A5040197A109B1098093A2049093A304B8
:1030F000A093A404B093A504FF91EF91BF91AF9169
:103100009F918F917F916F915F914F913F912F91FF
:103110000F900FBE0F901F9018958091DC0193DFE8
:10312000EBCF40E855E260E070E090E080E000C066
:1031300026E082E094E051CE1F920F920FB60F92DC
:1031400011242F933F934F935F936F937F938F93AC
:103150009F93AF93BF93EF93FF938BEC93EF909379
:103160008500809384000E943E28FF91EF91BF91DB
:10317000AF919F918F917F916F915F914F913F910F
:103180002F910F900FBE0F901F9018958BEC93EF1F
:103190009093850080938400AFE6B0E08C918E7FA1
:1031A0008C93E0E8F0E080818C7F8083E1E8F0E0C0
:1031B0008081877E808380818560808380818D7F10
:1031C00080838C9181608C93089581E008958F9223
:1031D0009F92AF92BF92CF92DF92EF92FF920F93A6
:1031E0001F93CF93DF935C017B018A01C1E0D0E0A4
:1031F000CE15DF05CCF081E0F5018083B801C70171
:103200000E940924F5019283818390E080E0DF91A0
:10321000CF911F910F91FF90EF90DF90CF90BF90D3
:10322000AF909F908F9008956E018FEFC81AD80AC3
:10323000FE01EE0FFF1FE00FF11F808091808114CF
:10324000910469F06CEE72E0C4010E94F62C892BA7
:1032500041F4CC0FDD1FC00FD11F19821882E60187
:10326000C7CF6FEE72E0C4010E94F62C892BB9F72C
:10327000EC14FD04A1F36E01E2E0CE0ED11CCC0FE4
:10328000DD1FC00FD11F198218821B821A82E7CF5F
:1032900086EA94E0089580E008950F931F93CF93FA
:1032A000DF938B01BA01E901198218829801012E7E
:1032B000000C440B550BFC0181819281FADA0196D6
:1032C00041F01983088380E0DF91CF911F910F9126
:1032D000089581E0F9CF0F931F93CF93DF9300D030
:1032E000CDB7DEB7FB018A01B9019E012F5F3F4FC9
:1032F000AF01FC01818192810E942024019669F036
:1033000089819A81F8019183808380E00F900F90EA
:10331000DF91CF911F910F91089581E0F7CFFC01CC
:10332000808108950895089581E0FB01808380E005
:10333000089508951092CE040895FC018181928130
:103340000C940024CF93DF93CDB7DEB72A970FB646
:10335000F894DEBF0FBECDBFB0E0A0E089839A83B2
:10336000AB83BC83CB01770FAA0BBB0B8D839E83F2
:10337000AF83B8879E01275F3F4FAE014F5F5F4F1E
:1033800068E070E08091BD049091BE0486DF8111F9
:1033900010C081E029853A852830310509F480E0A4
:1033A0002A960FB6F894DEBF0FBECDBFDF91CF9146
:1033B000089581E0F5CF0F931F93CF93DF9300D053
:1033C000CDB7DEB78B019E012F5F3F4FAC018091DF
:1033D000BD049091BE0461DF81110EC081E029819E
:1033E0003A812017310709F480E00F900F90DF91A8
:1033F000CF911F910F91089581E0F7CFCF93DF9385
:10340000EC011092C1041092C0041092CD041092ED
:10341000CC04AC0160E070E0CB010E94170EAE015D
:1034200061E070E080E090E00E94170E8091BD04A2
:103430009091BE04DF91CF917CCF4F925F926F92BB
:103440007F928F929F92AF92BF92CF92DF92EF9234
:10345000FF920F931F93CF93DF9300D0CDB7DEB7CA
:103460008C017C0197FF03C087E0E80EF11C23E08C
:10347000F594E7942A95E1F7C80168E070E00E94AE
:10348000332B6C010E5F1F4F8091BB049091BC04E5
:1034900080179107D4F48091B9049091BA040097F1
:1034A00031F00E945D2C1092BC041092BB04C80144
:1034B0000E94C12B9093BA048093B904892B09F41C
:1034C00082C01093BC040093BB0410E000E047C12D
:1034D000412C512C3201B12CA12C95012E533B4F84
:1034E000AE014F5F5F4F61E070E08091BD0490914D
:1034F000BE04F1DE811149C0EFEF4E1A5E0A6E0A7A
:103500007E0AF0E94F16FFE55F06F1E06F067104F1
:1035100044F06091CC047091CD048DEE90E012DF08
:10352000D7CF89819A81A80EB91E8AE0A816B10466
:1035300009F043C049E050E070E060E082EC94E0C4
:103540000E949B246091CC047091CD04882391F15A
:103550008091CA0490E08617970781F4BC018EEE33
:1035600090E0F0DE8091CC049091CD0401969927F3
:103570009093CD048093CC040F5F1F4F0E151F0551
:103580000CF4A6CFCD2809F07CC090E080E00F902D
:103590000F90DF91CF911F910F91FF90EF90DF90EF
:1035A000CF90BF90AF909F908F907F906F905F90E3
:1035B0004F9008958FEE90E0B2CFEAE0AE16B104DE
:1035C0000CF48BCFDBCF10E000E0D8CF0A30110530
:1035D00031F549E050E070E060E082EC94E00E9458
:1035E0009B246091CC047091CD048823A9F0809134
:1035F000CA0490E08617970741F6BC018EEE90E072
:10360000A1DE8091CC049091CD04019699279093EE
:10361000CD048093CC04B9CF8FEE90E02BC00A305C
:1036200011050CF0B2CF98012E533B4FAE014F5F06
:103630005F4F61E070E08091BD049091BE044BDE6D
:103640008111A3CF89819A81080F191FFFEFCF1A2B
:10365000DF0AEF0AFF0A80E9C8168FE5D80681E085
:10366000E806F1040CF4B2CF6091CC047091CD0463
:103670008DEE90E067DE10E000E0C12CD12C7601E9
:10368000D2CFC12CD12C760110E000E0CCCF412C60
:10369000512C3201B12CA12C480193E0880C991CCB
:1036A0009A95E1F72091B9043091BA04C501880DCB
:1036B000991D280F391FAE014F5F5F4F61E070E029
:1036C0008091BD049091BE0406DE81115ECFEFEFC4
:1036D0004E1A5E0A6E0A7E0A6091CC047091CD0487
:1036E0008DEE90E0F0E94F16FFE55F06F1E06F0622
:1036F00071040CF043C089819A81A80EB91E8AE03A
:10370000A816B10409F041C049E050E0B40180912D
:10371000B9049091BA040E949B246091CC047091EA
:10372000CD04882349F18091B9049091BA04880EA0
:10373000991EF401808590E08617970781F4BC01FB
:103740008EEE90E0FFDD8091CC049091CD04019647
:1037500099279093CD048093CC040F5F1F4F0E15D3
:103760001F050CF494CFC114D10409F081C08091DD
:10377000B9049091BA040BCF8FEE90E0E3DD412CB9
:10378000512C3201B12CA12C8DCFFAE0AF16B1042F
:103790000CF488CFE4CF8FEE90E0D4DDF12CE12C57
:1037A000812C912C540197012E533B4FAE014F5F5A
:1037B0005F4F61E070E08091BD049091BE048BDDAD
:1037C0008111E3CE8FEF881A980AA80AB80A60918F
:1037D000CC047091CD048DEE90E0E0E98E16EFE51B
:1037E0009E06E1E0AE06B104C4F689819A81E80E36
:1037F000F91EFAE0EF16F104A9F549E050E070E097
:1038000060E082EC94E00E949B246091CC04709173
:10381000CD04882309F4BFCF8091CA0490E08617B5
:10382000970709F0A4CFBC018EEE90E08BDD83E01A
:10383000000F111F8A95E1F78091B9049091BA04A5
:10384000A60162EC74E0800F911F0E94E62C80912B
:10385000CC049091CD04019699279093CD04809348
:10386000CC0485CF8AE0E816F1040CF49CCF7FCF1E
:10387000812C912C5401F12CE12C95CFCF92DF9229
:10388000EF92FF920F931F93CF93DF931F92CDB7C9
:10389000DEB76C017B018A01452B39F0AB0170E08A
:1038A00060E0C8010E9497248983B701C6014ADD00
:1038B00081110DC00115110551F0B701C8017BDD63
:1038C000811105C061E070E0CE01019674DD0F90BA
:1038D000DF91CF911F910F91FF90EF90DF90CF90EC
:1038E0000895CF92DF92EF92FF92CF93DF93CDB7FF
:1038F000DEB728970FB6F894DEBF0FBECDBF6B01C1
:10390000F12CE12CC982DA82EB82FC822D833E838A
:103910004F835887AE014F5F5F4F68E070E0AEDFC6
:1039200028960FB6F894DEBF0FBECDBFDF91CF91C2
:10393000FF90EF90DF90CF9008958F929F92AF927B
:10394000BF92CF92DF92EF92FF920F931F93CF938C
:10395000DF937C01EB01CA0169016FDD0097B1F4CF
:103960002FEF3FEFA90161E070E0C701BADFC1E0CE
:103970008C2FDF91CF911F910F91FF90EF90DF90EF
:10398000CF90BF90AF909F908F900895FC01819051
:103990009190A190B190BF01FCE1EF16F10479F490
:1039A000A5019401CE010E947D0CC82FA5019401B0
:1039B000882369F061E070E0C70193DFD9CF9501FA
:1039C0008401AB01B601CE010E94800AEECF70E007
:1039D00060E0C701DF91CF911F910F91FF90EF90B1
:1039E000DF90CF90BF90AF909F908F907ACF0F9342
:1039F0001F93CF93DF93EC018B014ADC9093BE04BD
:103A00008093BD040097A9F0A801BE01E0DBEC01A2
:103A1000892B49F08091BD049091BE0483DC109203
:103A2000BE041092BD04CE01DF91CF911F910F9182
:103A30000895CBEFD2E0EECF8091BD049091BE040B
:103A40006ECC2F923F924F925F926F927F928F92A5
:103A50009F92AF92BF92CF92DF92EF92FF920F931D
:103A60001F93CF93DF93CDB7DEB769970FB6F89466
:103A7000DEBF0FBECDBF2091C1042223F9F05B8BC6
:103A80004A8B6E877F87888B998B9A01AB01BC012B
:103A9000CE0101967C010E94E71210E048E0242E3E
:103AA000312CE88EF98E89819A81181619060CF44A
:103AB00051C2112319F08A899B89A0DC69960FB63F
:103AC000F894DEBF0FBECDBFDF91CF911F910F9154
:103AD000FF90EF90DF90CF90BF90AF909F908F902E
:103AE0007F906F905F904F903F902F900895EB8163
:103AF000FC818C859D8533E0880F991F3A95E1F70D
:103B0000E80FF91F808191819093B8048093B704E6
:103B100024813581428153815093B6044093B5048A
:103B2000468157815093B4044093B304820F931F8E
:103B30009C01990F440B550B2C8B3D8B4E8B5F8B4F
:103B4000812C912C54018C899D89AE89BF8988165E
:103B50009906AA06BB0640F18C859D85880F991FA2
:103B6000ED81FE81E80FF91F4E855F8568897989AF
:103B7000808191810E94490EAC85BD851196BD87DB
:103B8000AC8789819A81EC85FD85E817F9070CF4EB
:103B9000AECF2A893B894E855F8568897989888D72
:103BA000998D0E94E7127FCF1F826091B7047091B8
:103BB000B804CB01072E000CAA0BBB0B84017501C6
:103BC000640134E0C30ED11CE11CF11CC816D906F7
:103BD000EA06FB0608F0B3C02091B5043091B604A4
:103BE000A4014C5F5F4F240F351FF901C080D12C19
:103BF000F12CE12C24013501F5E04F0E511C611C24
:103C0000711C481659066A067B0608F0A3C020916D
:103C1000B5043091B604F8013596E20FF31F208108
:103C2000D22A2401350126E0420E511C611C711C70
:103C3000481659066A067B0608F097C02091B5041D
:103C40003091B604F8013696E20FF31F2081E22A84
:103C50002401350137E0430E511C611C711C4816CC
:103C600059066A067B0608F08BC02091B504309196
:103C7000B604F8013796E20FF31F208126013701C1
:103C8000722A7501640148E0C40ED11CE11CF11CCC
:103C90008C159D05AE05BF0508F41DC18816990653
:103CA000AA06BB0608F077C08091B5049091B604CF
:103CB000800F911F68E070E07EDBE091B704F09127
:103CC000B8049F010F2E000C440B550BD301C20109
:103CD0008C0D9D1DAE1DBF1D281739074A075B07B8
:103CE00008F478C0C216D306E406F50608F05DC0F5
:103CF0008091B5049091B6049801285F3F4F820FE0
:103D0000931FB20158DB8091B7049091B804AC01C5
:103D1000092E000C660B770BC416D506E606F706CF
:103D200008F04DC0085F1F4F8091B5049091B60414
:103D3000800F911FA20170E060E0F9D5A7C044E0B8
:103D400050E0461B570B480D591D2091B30430918C
:103D5000B40449CFE5E0F0E0E61BF70BE00FF11FFC
:103D60002091B3043091B40458CFE6E0F0E0E61BB4
:103D7000F70BE00FF11F2091B3043091B40464CF2E
:103D8000E7E0F0E0E61BF70BE00FF11F2091B30432
:103D90003091B40470CF9801261B370B8091B30487
:103DA0009091B404820F931F85CF91012E1B3F0B7E
:103DB000200F311F8091B3049091B404A0CFD101A2
:103DC000A81BB90BCD01080F191F8091B304909166
:103DD000B404AECFBF0168507109601B710BC216ED
:103DE000D306E406F50608F062C08091B504909110
:103DF000B6049801285F3F4F820F931FDCDA809151
:103E0000B7049091B804B101681B790B600F711F62
:103E1000640D751D8091B3049091B404CCDA809147
:103E2000B7049091B804AC0148505109FA01E01B65
:103E3000F10BAC01092E000C660B770BC416D506EE
:103E4000E606F70608F03DC08091B5049091B604EF
:103E50009801285F3F4F820F931FAF0170E060E031
:103E600066D58F832091B7043091B804F101E21B2D
:103E7000F30B9F01200F311F240D351D50E040E052
:103E8000682F8091B3049091B4043DD58F8361E095
:103E900070E0CE0107968FDA182F38E0430E511CE0
:103EA000611C711C840C951CA61CB71C4CCE910186
:103EB0002E1B3F0B200F311F8091B3049091B4044F
:103EC0009BCF9101281B390B200F311F8091B30428
:103ED0009091B404C0CF88169906AA06BB0668F56F
:103EE000601B710B8091B5049091B604800F911FF7
:103EF00062DA8091B7049091B804B101681B790B24
:103F0000600F711F640D751D8091B3049091B4040E
:103F100052DA8091B7049091B804AC01092E000CDC
:103F2000660B770BC416D506E606F70608F4FACE3C
:103F30009101281B390BC90146CFC801861B970B7D
:103F40002091B3043091B404B201685F7F4F820FB7
:103F5000931FDECF1D861C8614CECF93DF93EC011A
:103F6000AC0160E070E0CB016CDDAE0161E070E0BF
:103F700080E090E0DF91CF9164CDCF938091BD043C
:103F80009091BE0488D9C82F81110BC060E070E009
:103F9000CB010E94400961E070E080E090E00E9467
:103FA00040098C2FCF9108950F931F9389019A0197
:103FB000AB01BC018091BD049091BE04B4D91F91A6
:103FC0000F9108954F925F926F927F928F929F927E
:103FD000AF92BF92CF92DF92EF92FF920F931F9317
:103FE000CF93DF93CDB7DEB763970FB6F894DEBFFC
:103FF0000FBECDBF6C018B015A018091C104882393
:1040000009F43DC08091C104882309F442C0809125
:10401000C0041A821982882309F4BEC0F0E94F2E29
:10402000FFE55F2E66246394712CF12CE12C97013F
:1040300027553B4FAE014F5F5F4F61E070E08091CD
:10404000BD049091BE0447D9982E811169C0898121
:104050009A81E80EF91EE114F10409F461C081E0CF
:10406000481A51086108710859F56091CC047091A3
:10407000CD048DEE90E066D91A82198251C061ECB0
:1040800074E08091BD049091BE044ED9882309F458
:10409000B9CF63960FB6F894DEBF0FBECDBFDF91E8
:1040A000CF911F910F91FF90EF90DF90CF90BF9035
:1040B000AF909F908F907F906F905F904F900895FA
:1040C000AAE0EA16F10409F061C049E050E070E0AE
:1040D00060E089EA94E02FD46091CC047091CD0423
:1040E000882309F450C08091B10490E086179707A7
:1040F00019F6BC018EEE90E025D988E0E9EAF4E0FB
:10410000DE01199601900D928A95E1F78091CC0419
:104110009091CD04019699279093CD048093CC047F
:1041200081E029813A81121613060CF080E091108B
:10413000C8C2882309F4ADCF8091C004811104C0A6
:1041400019861A861B861C8689859A85AB85BC854F
:1041500080319105A105B10508F09BCFFC01ED541C
:10416000FF4D0C94682B3321F22261234920372222
:104170006A2223212B21072146233523422349206C
:1041800049204920F2208FEE90E075CFBAE0EB167F
:10419000F1040CF44CCFC4CFF12CE12CE8E06E2EEE
:1041A000712C29E030E02C0F3D1F2E0D3F1DAE017C
:1041B0004F5F5F4FB3016E197F098091BD049091ED
:1041C000BE0489D8982E29813A81811109C0E20E56
:1041D000F31EE114F10421F0E8E0EE16F1040CF313
:1041E00081E0A1CFD6011696ED91FC91808191815D
:1041F000A281B38189839A83AB83BC83AE014F5F75
:104200005F4F64E070E085E190E038DB42CF8D8560
:104210009E8513D92FEF3FEFA90161E070E0009771
:1042200071F0FC01C080D180E280F380A801C70159
:10423000B6010E94C20DA701960170E060E08DE119
:1042400090E04FDB26CF4D855E859801B6018BE16E
:1042500090E073DB1ECF4D855E852FEF3FEFB601FB
:104260008CE190E0F6CFD6011496ED91FC9100819F
:104270001181F80182809380A080B18070E1472E87
:10428000512C612C712C49825A826B827C8288E08D
:1042900090E0A0E0B0E08D839E83AF83B8879E015D
:1042A0002F5E3F4FAE014F5F5F4F68E070E080913F
:1042B000BD049091BE040E944D198823D9F010E0EE
:1042C00000E0C80163960FB6F894DEBF0FBECDBF05
:1042D000DF91CF911F910F91FF90EF90DF90CF90E2
:1042E000BF90AF909F908F907F906F905F904F9016
:1042F0000C945D2C89899A89089709F7D801ED906B
:10430000FC90B8E0EB0EF11CEE0CFF1CEE0CFF1C59
:10431000C7010E94C12B8C01892B89F249825A82E4
:104320006B827C82C7010F2C000CAA0BBB0B8D8308
:104330009E83AF83B8879E012F5E3F4FAE014F5FD4
:104340005F4F68E070E08091BD049091BE040E94D0
:104350004D198111B6CF89899A89089709F0B1CF93
:10436000D6011296ED91FC91408151816281738159
:10437000D8014D935D936D937C9313974481558140
:104380006681778114964D935D936D937C93179717
:10439000408551856285738518964D935D936D9325
:1043A0007C931B9784859585A685B785F8018487BE
:1043B0009587A687B787108A118A128A138A84E0A4
:1043C00090E0A0E0B0E0848B958BA68BB78B8091BA
:1043D000D6019091D701B0E0A0E0808F918FA28F9D
:1043E000B38FC5010B2C000CAA0BBB0B848F958FD0
:1043F000A68FB78FF401D801909690E080E08A15DF
:104400009B055CF19E012F5E3F4FA801B701809193
:10441000BD049091BE040E944D19811152CF89892B
:104420009A89E816F90609F04CCFA70170E060E020
:10443000C8017DD28B8B9E012F5E3F4FAE014D5E3A
:104440005F4F61E070E08091BD049091BE040E94D6
:104450004D1981E08093C00434CF4191519170E0B7
:1044600060E04D935D936D937D930196C8CF8D85EC
:104470009E85AF85B8890097A105B10521F481E03B
:104480008093BF0406CE0E941D1A009781F481E03C
:1044900090E0A0E0B0E089839A83AB83BC83AE0157
:1044A0004F5F5F4F64E070E082E190E0AECEBC0110
:1044B000C6010E94990819821A821B821C82AE01D1
:1044C0004F5F5F4F64E070E082E190E0D7D98823CE
:1044D000B1F2DFCDD6011496ED91FC910190F081FF
:1044E000E02DE084F1848FEF8983E114F10409F475
:1044F00072C0D7016D907C90C280D38070E060E084
:1045000090E080E08615970594F083E190E00E94AA
:10451000A21910E000E08111BCCD061517055CF171
:1045200061E070E0CE0101960E94DB19B2CD9C01E2
:1045300043E0220F331F4A95E1F7F701A281B381CF
:10454000A20FB31F1296ED91FC911397EE0FFF1F70
:10455000EC0DFD1D0190F081E02D16964D915C91C2
:10456000E49F9001E59F300DF49F300D1124620F00
:10457000731F0196C7CFD7011296ED91FC91C80128
:1045800023E0880F991F2A95E1F7E80FF91FA08013
:10459000B180A281B381AA0FBB1FAC0DBD1D2D91AF
:1045A0003C9186819781289F4001299F900C389FDC
:1045B000900C1124B401C5010E94DB19582E9401FE
:1045C00050E040E06981C5019ED18983511061CDE1
:1045D0000F5F1F4FA2CF70E060E083E190E00E9488
:1045E000A21957CD50E040E070E060E081E190E03A
:1045F00045D981114ECD60E070E0CB010E94670A81
:104600008091F603882329F0A80160E070E0CB01D7
:1046100018DAA80160E070E0CB010E946C0961E04B
:1046200070E080E090E00E94670A8091F6038823A2
:1046300031F0A80161E070E080E090E002DAA801CA
:1046400061E070E080E090E00E946C091092C1048B
:104650001092C0041092CD041092CC048091BD043D
:104660009091BE040E949A1914CD81E090E090933D
:10467000F8038093F70350E040E070E060E086E1EB
:1046800090E0C3CD81E0F501808303CD8D859E85CB
:104690000E941D1A2FEF3FEFA90161E070E0009723
:1046A00069F0DC01CD90DD90ED90FC90C701B60182
:1046B0000E94220EA701960170E060E08EE190E07A
:1046C000C0CDC8010E94FE19E4CCCF92DF92EF92D8
:1046D000FF92CF93DF93EC01C12CD12C7601C7015F
:1046E000B6010E94670AAE01C701B601AAD9AE01A0
:1046F000C701B6010E946C098091B9049091BA0477
:10470000009731F00E945D2C1092BA041092B90407
:10471000CA94CD28CE28CF2879F58091C004F12CF9
:10472000882351F050E040E070E060E084E190E0E8
:10473000A5D8F82E1092C0048091C104882341F0BE
:104740001092C10481E090E09093D7018093D6014C
:104750008091BD049091BE040E949D198091BD047A
:104760009091BE040E9492198F2DDF91CF91FF90FE
:10477000EF90DF90CF900895C12CD12C7601C39497
:10478000AECFCF93DF93EC01AC0160E070E0CB01E2
:104790000E945712AE0161E070E080E090E0DF918E
:1047A000CF910C94571260E070E0CB010E94C412CC
:1047B00061E070E080E090E00C94C412CF92DF9250
:1047C000EF92FF920F931F93CF93DF93EC016A0157
:1047D0007B0100E010E098010E94720E01E010E001
:1047E00020E030E0B701A601CE010E94720EDF91F9
:1047F000CF911F910F91FF90EF90DF90CF90089590
:1048000068EE73E080E090E00E945C1590E080E04C
:10481000089526E040E050E16EE070E082E094E030
:104820000E94ED1682E094E00E942316892B29F065
:1048300082E094E00E943D16F5CF90E080E008957C
:10484000CF92DF92EF92FF920F931F93CF93DF935C
:104850006B017A01E9011982188282E094E00E94DA
:1048600023168E159F0580F18601CC24C39485E61E
:10487000D82E8091CE04811112C082E094E00E9473
:104880003D1685369105A9F7C092CE04F801D19264
:104890008F0188819981019699838883EACF8881E5
:1048A00099818E159F0580F482E094E00E943D1668
:1048B0008F3F9807A1F3F80181938F018881998137
:1048C000019699838883EBCF90E080E0DF91CF91D0
:1048D0001F910F91FF90EF90DF90CF9008950F936D
:1048E0001F93CF93DF93EA01890182E094E00E9455
:1048F000D617F801D183C08390E080E0DF91CF919B
:104900001F910F910895DC01A40FB51F420F531F93
:104910009D01281B390B2417350710F0862F0895A9
:10492000ED91E627F0E0E352FF4F6491F1CF9A0159
:10493000AB016FEFE8CFCF93FC01E60FF71FE40F59
:10494000F51FC081F4DF91E0C81390E0892FCF916B
:1049500008958091030590910405891B990B089592
:1049600090910405809103052FEF3FEF981748F4CD
:10497000E92FF0E0EB5FFA4F208130E09F5F9093EA
:104980000405C9010895E091040580910305E81725
:1049900030F4F0E0EB5FFA4F808190E008958FEF04
:1049A0009FEF08950895CF93DF93EC01E091DB042E
:1049B000F091DC043097F1F09091040580910305AB
:1049C0009817C0F090E0292F30E02617370754F4ED
:1049D000DE01A20FB31F4C912B5F3A4FD9014C93CC
:1049E0009F5FF1CF1092040560930305CB01DF9127
:1049F000CF910994DF91CF910895E091DD04F0917A
:104A0000DE04309729F01092E1041092E00409943A
:104A10000895CF93DF931F92CDB7DEB769832091BE
:104A2000DF042223F9F02091E004203258F021E045
:104A300030E0FC013383228390E080E00F90DF912F
:104A4000CF9108958091E104E82FF0E0EE51FB4F03
:104A5000998190838F5F8093E1048093E00481E0EB
:104A600090E0ECCF61E0CE010196AAD1F8CFCF92D1
:104A7000DF92EF92FF920F931F93CF93DF937C010E
:104A8000CB018A012091DF04222389F0EB016B0125
:104A9000C40ED51ECC15DD0561F06991D701ED91ED
:104AA000FC910190F081E02DC7010995F3CF642FAF
:104AB00087D1C801DF91CF911F910F91FF90EF90A7
:104AC000DF90CF9008951092040510920305109284
:104AD000E1041092E00498D08DEF94E29DD183ED33
:104AE00094E295C1AFC0CB01BA01B9C081E0809317
:104AF000DF04609302051092E1041092E00408952F
:104B00000F93062F21E04091E00462EE74E0809163
:104B10000205FFD01092E1041092E0041092DF042D
:104B20000F9108954F925F926F927F92AF92BF92D2
:104B3000CF92EF92FF920F931F93CF93DF935C017D
:104B4000F62ED42F28013901EE2009F1CFDFCE2D2A
:104B5000C43008F0C3E0C150B8F028E0C29FC001E3
:104B60001124A301920104C05695479537952795C6
:104B70008A95D2F7B901D501ED91FC910190F081B0
:104B8000E02DC5010995E7CF60E0C501B9DF4D2FE4
:104B9000D13208F040E22C2D65E075E08F2D71D008
:104BA0001092040580930305DF91CF911F910F911F
:104BB000FF90EF90CF90BF90AF907F906F905F90FD
:104BC0004F900895CF92EF920F931F93C22EE12C36
:104BD00000E010E09801A6DF1F910F91EF90CF90B9
:104BE000089521E0EFCFEFECF4E01382128288EE1B
:104BF00093E0A0E0B0E084839583A683B7838AE343
:104C000093E09183808308951092920581E08093D0
:104C1000900510928F0561E082E10E94F61561E037
:104C200083E10E94F615E9EBF0E080818E7F8083BE
:104C300080818D7F808388E48093B80085E48093B1
:104C4000BC000895ECEBF0E080818A7B808360E01B
:104C500082E10E94F61560E083E10C94F6159B0159
:104C6000AC0160E074E284EF90E010D5205131098E
:104C70004109510956954795379527952093B800D6
:104C80000895413208F043C0909192059111FCCFF4
:104C900091E090939205209390052FEF20932505A6
:104CA00010926A05240F20936905909391059091C5
:104CB0009105880F892B8093910580918F05813014
:104CC00009F510928F05809191058093BB0080912A
:104CD000BC0083FDF8CF85EC8093BC0080919205E9
:104CE0008130E1F380916A05841710F440916A05E0
:104CF000ABE6B5E0962FFB018E2F891B841720F0C1
:104D0000842F089585EEE8CF8D918193F5CF40E013
:104D1000F7CF0F93413208F04BC09091920591115B
:104D2000FCCF92E090939205009390059FEF9093B3
:104D3000250510926A0540936905362FABE6B5E06C
:104D4000FB019E2F931B941770F110929105909187
:104D50009105880F892B8093910580918F05813073
:104D600029F510928F05809191058093BB00809169
:104D7000BC0083FDF8CF85EC8093BC00222321F09A
:104D8000809192058230D1F3809125058F3F91F07B
:104D900080912505803281F080912505803371F066
:104DA00084E00F91089591919D93CBCF85EEE4CF50
:104DB00081E0F7CF80E0F5CF82E0F3CF83E0F1CF61
:104DC00020914705260F3327331F21323105ECF49C
:104DD00020919205FC0190E080E0243069F082E0AF
:104DE0000895A09147052191AC01475B5A4FA40F4C
:104DF000B52FB11D2C930196861798F38091470526
:104E0000680F6093470580E0089581E008959093CE
:104E10008C0580938B05089590938E0580938D0566
:104E2000089585ED8093BC008091BC0084FDFCCF8B
:104E300010929205089585EC8093BC001092920523
:104E400008951F920F920FB60F9211242F933F9344
:104E50004F935F936F937F938F939F93AF93BF9382
:104E6000EF93FF938091B900887F803609F44AC0A0
:104E700008F03DC0883209F4A6C018F5803109F465
:104E80009AC0B8F4882309F4F6C0883009F493C0B6
:104E9000FF91EF91BF91AF919F918F917F916F9112
:104EA0005F914F913F912F910F900FBE0F901F90E8
:104EB0001895883109F487C0803251F78093250511
:104EC00014C0803409F49CC040F48033B9F38833B3
:104ED000F9F680932505AFDFDBCF803509F484C078
:104EE000883509F495C0883499F69BDFD1CF88398D
:104EF00009F48CC038F5883729F050F4883611F061
:104F0000803731F683E0809392051092260557C0D2
:104F1000883809F47BC0803919F0803809F0B8CF9F
:104F200080912605803208F071C0E091260581E06D
:104F30008E0F809326058091BB00F0E0E95DFA4F6B
:104F400080833DC0803B39F0E0F4803A09F479C0B9
:104F5000883A09F09DCF84E080939205109248052D
:104F600010924705E0918D05F0918E05099580918D
:104F7000470581110FC081E08093470510924905D4
:104F800009C0803C09F475C0883C09F472C0883BB4
:104F900009F07ECFE091480581E08E0F80934805AF
:104FA000F0E0E75BFA4F80818093BB009091480569
:104FB0008091470529C0809191058093BB0085ECC5
:104FC0008093BC0065CF90916A0580916905981720
:104FD00058F5E0916A0581E08E0F80936A05F0E054
:104FE000E559FA4F8081E9CFE0916A0581E08E0FA3
:104FF00080936A058091BB00F0E0E559FA4F808309
:1050000090916A05809169059817C8F285E8D8CF14
:10501000E0916A0581E08E0F80936A058091BB0064
:10502000F0E0E559FA4F80838091900581115DCFC2
:1050300081E080938F0584EA8093BC0010929205F2
:1050400027CFF9DE80912605803230F4E0912605E5
:10505000F0E0E95DFA4F10826091260570E0E09182
:105060008B05F0918C0587E295E009951092260555
:105070000FCF85ECE1CF1092250537CF80919505B4
:1050800091E0980F90939505882349F021E030E056
:10509000309397052093960580939505089578940D
:1050A0000E948003F8948091950581508093950526
:1050B0000C944914FF920F931F93CF93DF931F9289
:1050C000CDB7DEB710929405109293050E94921509
:1050D0000E9491180091F2011091F301F8011182E0
:1050E000108270E060E090E080E00E9452140E9424
:1050F000F2057894C80182960E94511481E090E0F4
:105100000E944D141982AE014F5F5F4F61E070E065
:10511000F801828193810E94F7138981882319F015
:1051200081E0F80186A30E945814F8940E94C618E2
:10513000F80180819181892B19F481E096A1911168
:1051400080E08093930578947894FF24F394809181
:105150009305811110C00E94370781E090E00E9402
:105160004F14F89490E080E00F90DF91CF911F9161
:105170000F91FF9008951982AE014F5F5F4F61E07C
:1051800070E0F801828193810E9433148981882321
:1051900011F0F801F6A2F80180819181892B89F440
:1051A00081E096A1911101C080E0809394059091D7
:1051B000940581E0911180E0809393050E94E518A9
:1051C000C6CF81E0F2CF5058BB27AA270ED091C19D
:1051D00082D130F087D120F031F49F3F11F41EF4DA
:1051E00052C10EF4E095E7FB48C1E92F93D180F35B
:1051F000BA17620773078407950718F071F49EF5D4
:10520000ABC10EF4E0950B2EBA2FA02D0B01B90106
:1052100090010C01CA01A0011124FF27591B99F02C
:10522000593F50F4503E68F11A16F040A22F232F38
:10523000342F4427585FF3CF469537952795A79588
:10524000F0405395C9F77EF41F16BA0B620B730B2F
:10525000840BBAF09150A1F0FF0FBB1F661F771FA0
:10526000881FC2F70EC0BA0F621F731F841F48F455
:10527000879577956795B795F7959E3F08F0B3CFDB
:105280009395880F08F09927EE0F979587950895C5
:10529000DF93DD27B92FBF7740E85FE316161706C7
:1052A00048075B0710F4D92F62D19F938F937F93A8
:1052B0006F93C7D1E8E6F0E0E9D01BD12F913F9181
:1052C0004F915F9167D1DD2349F09058A2EA2AED12
:1052D0003FE049EC5FE3D0785D2787DFDF9109C1CC
:1052E000A8D008F481E008950CD003C1FBD040F0B1
:1052F000F2D030F021F45F3F19F0BFC051112DC141
:10530000C2C008D198F39923C9F35523B1F3951B73
:10531000550BBB27AA2762177307840738F09F5FD6
:105320005F4F220F331F441FAA1FA9F333D00E2E45
:105330003AF0E0E830D091505040E695001CCAF7B2
:1053400029D0FE2F27D0660F771F881FBB1F261777
:1053500037074807AB07B0E809F0BB0B802DBF014A
:10536000FF2793585F4F2AF09E3F510568F085C094
:10537000F4C05F3FECF3983EDCF386957795679534
:10538000B795F7959F5FC9F7880F911D96958795FB
:1053900097F90895E1E0660F771F881FBB1F62171A
:1053A00073078407BA0720F0621B730B840BBA0BD8
:1053B000EE1F88F7E0950895E89409C097FB3EF446
:1053C00090958095709561957F4F8F4F9F4F992352
:1053D000A9F0F92F96E9BB279395F69587957795D0
:1053E0006795B795F111F8CFFAF4BB0F11F460FF90
:1053F0001BC06F5F7F4F8F4F9F4F16C0882311F0E8
:1054000096E911C0772321F09EE8872F762F05C0FB
:10541000662371F096E8862F70E060E02AF09A9596
:10542000660F771F881FDAF7880F9695879597F98B
:105430000895990F0008550FAA0BE0E8FEEF161625
:105440001706E807F907C0F012161306E407F50778
:1054500098F0621B730B840B950B39F40A2661F0EC
:10546000232B242B252B21F408950A2609F4A1408F
:10547000A6958FEF811D811D089597F99F6780E89C
:1054800070E060E008959FEF80EC0895DF93CF9384
:105490001F930F93FF92EF92DF927B018C01689430
:1054A00005C0DA2EEF0176D0FE01E894A591259192
:1054B000359145915591AEF3EF0197DEFE019701CD
:1054C000A801DA9479F7DF90EF90FF900F911F9188
:1054D000CF91DF91089500240A9416161706180636
:1054E0000906089500240A941216130614060506E8
:1054F0000895092E0394000C11F4882352F0BB0F79
:1055000040F4BF2B11F460FF04C06F5F7F4F8F4FDB
:105510009F4F089557FD9058440F551F59F05F3F16
:1055200071F04795880F97FB991F61F09F3F79F0C5
:1055300087950895121613061406551FF2CF469547
:10554000F1DF08C0161617061806991FF1CF8695C9
:105550007105610508940895E894BB2766277727AD
:10556000CB0197F9089565DF08F48FEF08959B014B
:10557000AC0160E070E080E89FE3B6CE0BD0B9CF1D
:10558000AADF28F0AFDF18F0952309F076CF7BCFA4
:105590001124E3CFBFDFA0F3959FD1F3950F50E027
:1055A000551F629FF001729FBB27F00DB11D639FD5
:1055B000AA27F00DB11DAA1F649F6627B00DA11D7B
:1055C000661F829F2227B00DA11D621F739FB00D21
:1055D000A11D621F839FA00D611D221F749F332791
:1055E000A00D611D231F849F600D211D822F762F2A
:1055F0006A2F11249F5750408AF0E1F088234AF027
:10560000EE0FFF1FBB1F661F771F881F9150504072
:10561000A9F79E3F510570F030CF9FCF5F3FECF36D
:10562000983EDCF3869577956795B795F795E7955E
:105630009F5FC1F7FE2B880F911D9695879597F96F
:1056400008959B01AC019ACFDB018F939F9361D0AA
:10565000BF91AF91A29F800D911DA39F900DB29F0E
:10566000900D1124089597FB072E16F4009406D090
:1056700077FD08D058D007FC05D03EF49095819571
:105680009F4F0895709561957F4F0895A1E21A2E5E
:10569000AA1BBB1BFD010DC0AA1FBB1FEE1FFF1FD6
:1056A000A217B307E407F50720F0A21BB30BE40B26
:1056B000F50B661F771F881F991F1A9469F760956D
:1056C0007095809590959B01AC01BD01CF01089527
:1056D000EE0FFF1F0590F491E02D099405D03323C0
:1056E00012F48A1B9B0B10C0A29FB001B39FC00194
:1056F000A39F700D811D1124911DB29F700D811DFE
:105700001124911D0895F0DFB7FF0895821B930BBC
:105710000895EADFA59F900DB49F900DA49F800D82
:10572000911D11240895AA1BBB1B51E107C0AA1F9C
:10573000BB1FA617B70710F0A61BB70B881F991F32
:105740005A95A9F780959095BC01CD0108950F93C6
:105750001F93CF93DF93869F8001879F100D969FA5
:10576000100D1124C8010DD0EC01009721F0A80103
:1057700070E060E034D1CE01DF91CF911F910F91A5
:1057800008950F931F93CF93DF938230910510F408
:1057900082E090E0E0917506F091760630E020E03E
:1057A000B0E0A0E0309799F42115310509F44AC022
:1057B000281B390B24303105D8F58A819B8161156E
:1057C000710589F1FB0193838283FE0111C0408141
:1057D00051810281138148175907E0F04817590792
:1057E00099F4109761F012960C93129713961C93EC
:1057F0003296CF01DF91CF911F910F9108950093C1
:10580000750610937606F4CF2115310551F0421735
:10581000530738F0A901DB019A01BD01DF01F8014E
:10582000C1CFEF01F9CF9093760680937506CDCF67
:10583000FE01E20FF31F81939193225031093983C6
:105840002883D7CF2091730630917406232B41F41F
:105850002091020130910301309374062093730666
:1058600020910001309101012115310541F42DB73E
:105870003EB74091040150910501241B350BE09186
:105880007306F0917406E217F307A0F42E1B3F0B8A
:105890002817390778F0AC014E5F5F4F24173507A2
:1058A00048F04E0F5F1F5093740640937306819328
:1058B00091939FCFF0E0E0E09CCFCF93DF930097F0
:1058C000E9F0FC01329713821282A0917506B09123
:1058D0007606ED0130E020E01097A1F420813181BF
:1058E000820F931F20917306309174062817390791
:1058F00009F061C0F0937406E0937306DF91CF91D5
:105900000895EA01CE17DF07E8F54A815B819E0121
:1059100041155105B1F7E901FB83EA83499159919A
:10592000C40FD51FEC17FD0761F4808191810296A9
:10593000840F951FE90199838883828193819B83DA
:105940008A83F0E0E0E012968D919C911397009786
:10595000B9F52D913C911197CD010296820F931FBD
:1059600020917306309174062817390739F630975D
:1059700051F51092760610927506B0937406A093B6
:105980007306BCCFD383C28340815181840F951F9E
:10599000C817D90761F44E5F5F4F88819981480F1E
:1059A000591F518340838A819B8193838283211570
:1059B000310509F0B0CFF0937606E09375069ECFDF
:1059C000FD01DC01C0CF13821282D7CFFB01DC01C5
:1059D00002C001900D9241505040D8F70895DC016B
:1059E00001C06D9341505040E0F70895FB01DC0188
:1059F0008D91019080190110D9F3990B0895F894B5
:025A0000FFCFD6
:105A02000000770680000000CF0404000E01BE01F2
:105A12000F0000000200C601000000000200CE01DB
:105A2200010000000100D2010E0000000100070089
:105A320032013C0601000000010040060F00000098
:105A420003009805110000000100A60513000000E4
:105A52000100B005120000000400F005140000006F
:105A6200040030060F0000000300F401FB010502F0
:105A720004020D020C02160215021E022802D402B2
:105A820033023D0246020D02160216025A027A0241
:105A92009A02BA020400040001000100020002009E
:105AA20004000400010004000200020004000800D7
:105AB2000200040004000E0010000A0010000000A2
:105AC200000000000040000080BF00000000E12E46
:105AD20065420040010101009E149E14FF53696D4E
